{
  "contractName": "Compound",
  "abi": [
    {
      "inputs": [
        {
          "internalType": "address",
          "name": "_comptroller",
          "type": "address"
        },
        {
          "internalType": "address",
          "name": "_cEthAddress",
          "type": "address"
        }
      ],
      "stateMutability": "nonpayable",
      "type": "constructor"
    },
    {
      "inputs": [],
      "name": "cEth",
      "outputs": [
        {
          "internalType": "contract CEthInterface",
          "name": "",
          "type": "address"
        }
      ],
      "stateMutability": "view",
      "type": "function"
    },
    {
      "inputs": [],
      "name": "comptroller",
      "outputs": [
        {
          "internalType": "contract ComptrollerInterface",
          "name": "",
          "type": "address"
        }
      ],
      "stateMutability": "view",
      "type": "function"
    },
    {
      "inputs": [
        {
          "internalType": "address",
          "name": "cTokenAddress",
          "type": "address"
        }
      ],
      "name": "getcTokenBalance",
      "outputs": [
        {
          "internalType": "uint256",
          "name": "",
          "type": "uint256"
        }
      ],
      "stateMutability": "view",
      "type": "function"
    },
    {
      "inputs": [
        {
          "internalType": "address",
          "name": "cTokenAddress",
          "type": "address"
        }
      ],
      "name": "getUnderlyingBalance",
      "outputs": [
        {
          "internalType": "uint256",
          "name": "",
          "type": "uint256"
        }
      ],
      "stateMutability": "nonpayable",
      "type": "function"
    },
    {
      "inputs": [],
      "name": "getUnderlyingEthBalance",
      "outputs": [
        {
          "internalType": "uint256",
          "name": "",
          "type": "uint256"
        }
      ],
      "stateMutability": "nonpayable",
      "type": "function"
    }
  ],
  "bytecode": "0x608060405234801561001057600080fd5b506040516105173803806105178339818101604052604081101561003357600080fd5b810190808051906020019092919080519060200190929190505050816000806101000a81548173ffffffffffffffffffffffffffffffffffffffff021916908373ffffffffffffffffffffffffffffffffffffffff16021790555080600160006101000a81548173ffffffffffffffffffffffffffffffffffffffff021916908373ffffffffffffffffffffffffffffffffffffffff1602179055505050610437806100e06000396000f3fe608060405234801561001057600080fd5b50600436106100575760003560e01c80631031cb5f1461005c5780635fe3b567146100b4578063703d795c146100e8578063a44026a314610106578063f0d23e8f1461013a575b600080fd5b61009e6004803603602081101561007257600080fd5b81019080803573ffffffffffffffffffffffffffffffffffffffff169060200190929190505050610192565b6040518082815260200191505060405180910390f35b6100bc61023d565b604051808273ffffffffffffffffffffffffffffffffffffffff16815260200191505060405180910390f35b6100f0610261565b6040518082815260200191505060405180910390f35b61010e61032e565b604051808273ffffffffffffffffffffffffffffffffffffffff16815260200191505060405180910390f35b61017c6004803603602081101561015057600080fd5b81019080803573ffffffffffffffffffffffffffffffffffffffff169060200190929190505050610354565b6040518082815260200191505060405180910390f35b60008173ffffffffffffffffffffffffffffffffffffffff166370a08231306040518263ffffffff1660e01b8152600401808273ffffffffffffffffffffffffffffffffffffffff16815260200191505060206040518083038186803b1580156101fb57600080fd5b505afa15801561020f573d6000803e3d6000fd5b505050506040513d602081101561022557600080fd5b81019080805190602001909291905050509050919050565b60008054906101000a900473ffffffffffffffffffffffffffffffffffffffff1681565b6000600160009054906101000a900473ffffffffffffffffffffffffffffffffffffffff1673ffffffffffffffffffffffffffffffffffffffff16633af9e669306040518263ffffffff1660e01b8152600401808273ffffffffffffffffffffffffffffffffffffffff168152602001915050602060405180830381600087803b1580156102ee57600080fd5b505af1158015610302573d6000803e3d6000fd5b505050506040513d602081101561031857600080fd5b8101908080519060200190929190505050905090565b600160009054906101000a900473ffffffffffffffffffffffffffffffffffffffff1681565b60008173ffffffffffffffffffffffffffffffffffffffff16633af9e669306040518263ffffffff1660e01b8152600401808273ffffffffffffffffffffffffffffffffffffffff168152602001915050602060405180830381600087803b1580156103bf57600080fd5b505af11580156103d3573d6000803e3d6000fd5b505050506040513d60208110156103e957600080fd5b8101908080519060200190929190505050905091905056fea2646970667358221220fb439c3b19f246783e07e7a9f6af49a435fb9992d573efcb59e2f04e181c7a3364736f6c63430007040033",
  "immutableReferences": {},
  "source": "// SPDX-License-Identifier: MIT\r\npragma solidity ^0.7.4;\r\n\r\nimport '@openzeppelin/contracts/token/ERC20/IERC20.sol';\r\nimport './CTokenInterface.sol';\r\nimport './CEthInterface.sol';\r\nimport './ComptrollerInterface.sol';\r\n\r\ncontract Compound {\r\n  ComptrollerInterface public comptroller;\r\n  CEthInterface public cEth;\r\n\r\n  constructor(\r\n    address _comptroller,\r\n    address _cEthAddress\r\n  ) {\r\n    comptroller = ComptrollerInterface(_comptroller);\r\n    cEth = CEthInterface(_cEthAddress);\r\n  }\r\n\r\n  function supply(address cTokenAddress, uint underlyingAmount) internal {\r\n    CTokenInterface cToken = CTokenInterface(cTokenAddress);\r\n    address underlyingAddress = cToken.underlying(); \r\n    IERC20(underlyingAddress).approve(cTokenAddress, underlyingAmount);\r\n    uint result = cToken.mint(underlyingAmount);\r\n    require(\r\n      result == 0, \r\n      'cToken#mint() failed. see Compound ErrorReporter.sol for details'\r\n    );\r\n  }\r\n\r\n  function supplyEth(uint underlyingAmount) internal {\r\n    cEth.mint{value: underlyingAmount}();\r\n  }\r\n\r\n  function redeem(address cTokenAddress, uint underlyingAmount) internal {\r\n    CTokenInterface cToken = CTokenInterface(cTokenAddress);\r\n    uint result = cToken.redeemUnderlying(underlyingAmount);\r\n    require(\r\n      result == 0,\r\n      'cToken#redeemUnderlying() failed. see Compound ErrorReporter.sol for more details'\r\n    );\r\n  }\r\n\r\n  function redeemEth(uint underlyingAmount) internal {\r\n    uint result = cEth.redeemUnderlying(underlyingAmount);\r\n    require(\r\n      result == 0,\r\n      'cEth#redeemUnderlying() failed. see Compound ErrorReporter.sol for more details'\r\n    );\r\n  }\r\n\r\n  function claimComp() internal {\r\n    comptroller.claimComp(address(this));\r\n  }\r\n\r\n  function getCompAddress() internal view returns(address) {\r\n    return comptroller.getCompAddress();\r\n  }\r\n\r\n  function getUnderlyingAddress(\r\n    address cTokenAddress\r\n  ) \r\n    internal \r\n    view \r\n    returns(address) \r\n  {\r\n    return CTokenInterface(cTokenAddress).underlying();\r\n  }\r\n\r\n  function getcTokenBalance(address cTokenAddress) public view returns(uint){\r\n    return CTokenInterface(cTokenAddress).balanceOf(address(this));\r\n  }\r\n\r\n  function getUnderlyingBalance(address cTokenAddress) public returns(uint){\r\n    return CTokenInterface(cTokenAddress).balanceOfUnderlying(address(this));\r\n  }\r\n\r\n  function getUnderlyingEthBalance() public returns(uint){\r\n    return cEth.balanceOfUnderlying(address(this));\r\n  }\r\n}",
  "sourcePath": "C:/Lgm local/defi-dev/contracts/smartWallet/Compound.sol",
  "compiler": {
    "name": "solc",
    "version": "0.7.4+commit.3f05b770.Emscripten.clang"
  },
  "schemaVersion": "3.3.4",
  "updatedAt": "2021-03-20T08:23:54.553Z",
  "devdoc": {
    "kind": "dev",
    "methods": {},
    "version": 1
  },
  "userdoc": {
    "kind": "user",
    "methods": {},
    "version": 1
  }
}