{
  "contractName": "DAO",
  "abi": [
    {
      "inputs": [
        {
          "internalType": "address",
          "name": "_token",
          "type": "address"
        }
      ],
      "stateMutability": "nonpayable",
      "type": "constructor"
    },
    {
      "inputs": [
        {
          "internalType": "bytes32",
          "name": "",
          "type": "bytes32"
        }
      ],
      "name": "proposals",
      "outputs": [
        {
          "internalType": "address",
          "name": "author",
          "type": "address"
        },
        {
          "internalType": "bytes32",
          "name": "hash",
          "type": "bytes32"
        },
        {
          "internalType": "uint256",
          "name": "votesYes",
          "type": "uint256"
        },
        {
          "internalType": "uint256",
          "name": "votesNo",
          "type": "uint256"
        },
        {
          "internalType": "enum DAO.Status",
          "name": "status",
          "type": "uint8"
        },
        {
          "internalType": "uint256",
          "name": "createdAt",
          "type": "uint256"
        }
      ],
      "stateMutability": "view",
      "type": "function"
    },
    {
      "inputs": [
        {
          "internalType": "address",
          "name": "",
          "type": "address"
        }
      ],
      "name": "shares",
      "outputs": [
        {
          "internalType": "uint256",
          "name": "",
          "type": "uint256"
        }
      ],
      "stateMutability": "view",
      "type": "function"
    },
    {
      "inputs": [],
      "name": "token",
      "outputs": [
        {
          "internalType": "contract IERC20",
          "name": "",
          "type": "address"
        }
      ],
      "stateMutability": "view",
      "type": "function"
    },
    {
      "inputs": [],
      "name": "totalShares",
      "outputs": [
        {
          "internalType": "uint256",
          "name": "",
          "type": "uint256"
        }
      ],
      "stateMutability": "view",
      "type": "function"
    },
    {
      "inputs": [
        {
          "internalType": "address",
          "name": "",
          "type": "address"
        },
        {
          "internalType": "bytes32",
          "name": "",
          "type": "bytes32"
        }
      ],
      "name": "votes",
      "outputs": [
        {
          "internalType": "bool",
          "name": "",
          "type": "bool"
        }
      ],
      "stateMutability": "view",
      "type": "function"
    },
    {
      "inputs": [
        {
          "internalType": "uint256",
          "name": "amount",
          "type": "uint256"
        }
      ],
      "name": "deposit",
      "outputs": [],
      "stateMutability": "nonpayable",
      "type": "function"
    },
    {
      "inputs": [
        {
          "internalType": "uint256",
          "name": "amount",
          "type": "uint256"
        }
      ],
      "name": "withdraw",
      "outputs": [],
      "stateMutability": "nonpayable",
      "type": "function"
    },
    {
      "inputs": [
        {
          "internalType": "bytes32",
          "name": "_hash",
          "type": "bytes32"
        }
      ],
      "name": "createProposal",
      "outputs": [],
      "stateMutability": "nonpayable",
      "type": "function"
    },
    {
      "inputs": [
        {
          "internalType": "bytes32",
          "name": "_hash",
          "type": "bytes32"
        },
        {
          "internalType": "enum DAO.Side",
          "name": "side",
          "type": "uint8"
        }
      ],
      "name": "vote",
      "outputs": [],
      "stateMutability": "nonpayable",
      "type": "function"
    },
    {
      "inputs": [
        {
          "internalType": "bytes32",
          "name": "_hash",
          "type": "bytes32"
        }
      ],
      "name": "isVotingOver",
      "outputs": [
        {
          "internalType": "bool",
          "name": "",
          "type": "bool"
        }
      ],
      "stateMutability": "view",
      "type": "function"
    },
    {
      "inputs": [
        {
          "internalType": "bytes32",
          "name": "_hash",
          "type": "bytes32"
        }
      ],
      "name": "isVotingTimeOver",
      "outputs": [
        {
          "internalType": "bool",
          "name": "",
          "type": "bool"
        }
      ],
      "stateMutability": "view",
      "type": "function"
    },
    {
      "inputs": [
        {
          "internalType": "bytes32",
          "name": "_hash",
          "type": "bytes32"
        }
      ],
      "name": "closeVoting",
      "outputs": [],
      "stateMutability": "nonpayable",
      "type": "function"
    }
  ],
  "bytecode": "0x608060405234801561001057600080fd5b506040516111cd3803806111cd8339818101604052602081101561003357600080fd5b810190808051906020019092919050505080600460006101000a81548173ffffffffffffffffffffffffffffffffffffffff021916908373ffffffffffffffffffffffffffffffffffffffff16021790555050611138806100956000396000f3fe608060405234801561001057600080fd5b50600436106100b45760003560e01c8063b6b55f2511610071578063b6b55f2514610261578063c9a28cb91461028f578063ce7c2ac2146102ca578063e689146414610322578063fb47884814610350578063fc0c546a14610394576100b4565b80631db5ade8146100b95780632542bf061461011d5780632e1a7d4d1461014b57806332ed5b12146101795780633a98ef39146101ff57806352e4c9811461021d575b600080fd5b610105600480360360408110156100cf57600080fd5b81019080803573ffffffffffffffffffffffffffffffffffffffff169060200190929190803590602001909291905050506103c8565b60405180821515815260200191505060405180910390f35b6101496004803603602081101561013357600080fd5b81019080803590602001909291905050506103f7565b005b6101776004803603602081101561016157600080fd5b8101908080359060200190929190505050610643565b005b6101a56004803603602081101561018f57600080fd5b8101908080359060200190929190505050610827565b604051808773ffffffffffffffffffffffffffffffffffffffff1681526020018681526020018581526020018481526020018360028111156101e357fe5b8152602001828152602001965050505050505060405180910390f35b610207610890565b6040518082815260200191505060405180910390f35b6102496004803603602081101561023357600080fd5b8101908080359060200190929190505050610896565b60405180821515815260200191505060405180910390f35b61028d6004803603602081101561027757600080fd5b81019080803590602001909291905050506108bc565b005b6102c8600480360360408110156102a557600080fd5b8101908080359060200190929190803560ff169060200190929190505050610a09565b005b61030c600480360360208110156102e057600080fd5b81019080803573ffffffffffffffffffffffffffffffffffffffff169060200190929190505050610e1b565b6040518082815260200191505060405180910390f35b61034e6004803603602081101561033857600080fd5b8101908080359060200190929190505050610e33565b005b61037c6004803603602081101561036657600080fd5b8101908080359060200190929190505050610fed565b60405180821515815260200191505060405180910390f35b61039c611032565b604051808273ffffffffffffffffffffffffffffffffffffffff16815260200191505060405180910390f35b60016020528160005260406000206020528060005260406000206000915091509054906101000a900460ff1681565b683635c9adc5dea00000600260003373ffffffffffffffffffffffffffffffffffffffff1673ffffffffffffffffffffffffffffffffffffffff1681526020019081526020016000205410156104b5576040517f08c379a00000000000000000000000000000000000000000000000000000000081526004018080602001828103825260118152602001807f4e6f7420656e6f7567682073686172656400000000000000000000000000000081525060200191505060405180910390fd5b6000801b6000808381526020019081526020016000206001015414610542576040517f08c379a00000000000000000000000000000000000000000000000000000000081526004018080602001828103825260168152602001807f506f706f73616c20616c7265616479206578697374730000000000000000000081525060200191505060405180910390fd5b6040518060c001604052803373ffffffffffffffffffffffffffffffffffffffff16815260200182815260200160008152602001600081526020016000600281111561058a57fe5b81526020014281525060008083815260200190815260200160002060008201518160000160006101000a81548173ffffffffffffffffffffffffffffffffffffffff021916908373ffffffffffffffffffffffffffffffffffffffff16021790555060208201518160010155604082015181600201556060820151816003015560808201518160040160006101000a81548160ff0219169083600281111561062e57fe5b021790555060a0820151816005015590505050565b80600260003373ffffffffffffffffffffffffffffffffffffffff1673ffffffffffffffffffffffffffffffffffffffff1681526020019081526020016000205410156106f8576040517f08c379a00000000000000000000000000000000000000000000000000000000081526004018080602001828103825260118152602001807f4e6f7420656e6f7567682073686172656400000000000000000000000000000081525060200191505060405180910390fd5b80600260003373ffffffffffffffffffffffffffffffffffffffff1673ffffffffffffffffffffffffffffffffffffffff1681526020019081526020016000206000828254039250508190555080600360008282540392505081905550600460009054906101000a900473ffffffffffffffffffffffffffffffffffffffff1673ffffffffffffffffffffffffffffffffffffffff1663a9059cbb33836040518363ffffffff1660e01b8152600401808373ffffffffffffffffffffffffffffffffffffffff16815260200182815260200192505050602060405180830381600087803b1580156107e857600080fd5b505af11580156107fc573d6000803e3d6000fd5b505050506040513d602081101561081257600080fd5b81019080805190602001909291905050505050565b60006020528060005260406000206000915090508060000160009054906101000a900473ffffffffffffffffffffffffffffffffffffffff16908060010154908060020154908060030154908060040160009054906101000a900460ff16908060050154905086565b60035481565b600062093a80420360008084815260200190815260200160002060050154119050919050565b80600260003373ffffffffffffffffffffffffffffffffffffffff1673ffffffffffffffffffffffffffffffffffffffff1681526020019081526020016000206000828254019250508190555080600360008282540192505081905550600460009054906101000a900473ffffffffffffffffffffffffffffffffffffffff1673ffffffffffffffffffffffffffffffffffffffff166323b872dd3330846040518463ffffffff1660e01b8152600401808473ffffffffffffffffffffffffffffffffffffffff1681526020018373ffffffffffffffffffffffffffffffffffffffff1681526020018281526020019350505050602060405180830381600087803b1580156109ca57600080fd5b505af11580156109de573d6000803e3d6000fd5b505050506040513d60208110156109f457600080fd5b81019080805190602001909291905050505050565b683635c9adc5dea00000600260003373ffffffffffffffffffffffffffffffffffffffff1673ffffffffffffffffffffffffffffffffffffffff168152602001908152602001600020541015610ac7576040517f08c379a00000000000000000000000000000000000000000000000000000000081526004018080602001828103825260118152602001807f4e6f7420656e6f7567682073686172656400000000000000000000000000000081525060200191505060405180910390fd5b600080600084815260200190815260200160002090506000801b81600101541415610b5a576040517f08c379a00000000000000000000000000000000000000000000000000000000081526004018080602001828103825260178152602001807f50726f706f73616c20646f6573206e6f7420657869737400000000000000000081525060200191505060405180910390fd5b60006002811115610b6757fe5b8160040160009054906101000a900460ff166002811115610b8457fe5b14610bf7576040517f08c379a000000000000000000000000000000000000000000000000000000000815260040180806020018281038252600e8152602001807f566f74696e67206973206f76657200000000000000000000000000000000000081525060200191505060405180910390fd5b62093a80420381600501541115610c1657610c1183611058565b610e16565b60001515600160003373ffffffffffffffffffffffffffffffffffffffff1673ffffffffffffffffffffffffffffffffffffffff168152602001908152602001600020600085815260200190815260200160002060009054906101000a900460ff16151514610ced576040517f08c379a000000000000000000000000000000000000000000000000000000000815260040180806020018281038252600d8152602001807f416c726561647920766f7465640000000000000000000000000000000000000081525060200191505060405180910390fd5b60011515600160003373ffffffffffffffffffffffffffffffffffffffff1673ffffffffffffffffffffffffffffffffffffffff168152602001908152602001600020600085815260200190815260200160002060009054906101000a9050505060006001811115610d5b57fe5b826001811115610d6757fe5b1415610dc357600260003373ffffffffffffffffffffffffffffffffffffffff1673ffffffffffffffffffffffffffffffffffffffff168152602001908152602001600020548160020160008282540192505081905550610e15565b600260003373ffffffffffffffffffffffffffffffffffffffff1673ffffffffffffffffffffffffffffffffffffffff1681526020019081526020016000205481600301600082825401925050819055505b5b505050565b60026020528060005260406000206000915090505481565b6000801b600080838152602001908152602001600020600101541415610ec1576040517f08c379a00000000000000000000000000000000000000000000000000000000081526004018080602001828103825260178152602001807f50726f706f73616c20646f6573206e6f7420657869737400000000000000000081525060200191505060405180910390fd5b60006002811115610ece57fe5b60008083815260200190815260200160002060040160009054906101000a900460ff166002811115610efc57fe5b14610f6f576040517f08c379a000000000000000000000000000000000000000000000000000000000815260040180806020018281038252600e8152602001807f566f74696e67206973206f76657200000000000000000000000000000000000081525060200191505060405180910390fd5b62093a8042036000808381526020019081526020016000206005015411610fe1576040517f08c379a00000000000000000000000000000000000000000000000000000000081526004018080602001828103825260238152602001806110e06023913960400191505060405180910390fd5b610fea81611058565b50565b6000806002811115610ffb57fe5b60008084815260200190815260200160002060040160009054906101000a900460ff16600281111561102957fe5b14159050919050565b600460009054906101000a900473ffffffffffffffffffffffffffffffffffffffff1681565b60008060008381526020019081526020016000209050603260035460648360020154028161108257fe5b0411156110b45760018160040160006101000a81548160ff021916908360028111156110aa57fe5b02179055506110db565b60028160040160006101000a81548160ff021916908360028111156110d557fe5b02179055505b505056fe5468657265206973207374696c6c2074696d65206c65667420746f20766f74652e2e2ea2646970667358221220d413f9baba259636b66b1ef21ca7f6618b00f1f840687dd627bcf19329e8e62f64736f6c63430007040033",
  "immutableReferences": {},
  "source": "// SPDX-License-Identifier: MIT\r\npragma solidity ^0.7.4;\r\n\r\nimport \"@openzeppelin/contracts/token/ERC20/IERC20.sol\";\r\n\r\ncontract DAO {\r\n    enum Side {Yes, No}\r\n    enum Status {Undecided, Approved, Rejected}\r\n    struct Proposal {\r\n        address author;\r\n        bytes32 hash;\r\n        uint256 votesYes;\r\n        uint256 votesNo;\r\n        Status status;\r\n        uint256 createdAt;\r\n    }\r\n\r\n    mapping(bytes32 => Proposal) public proposals;\r\n    mapping(address => mapping(bytes32 => bool)) public votes;\r\n    mapping(address => uint256) public shares;\r\n    uint256 public totalShares;\r\n    IERC20 public token;\r\n    uint256 constant CREATE_PROPOSAL_MIN_SHARE = 1000 * 10**18;\r\n    uint256 constant VOTING_PERIOD = 7 days;\r\n\r\n    constructor(address _token) {\r\n        token = IERC20(_token);\r\n    }\r\n\r\n    function deposit(uint256 amount) external {\r\n        shares[msg.sender] += amount;\r\n        totalShares += amount;\r\n        token.transferFrom(msg.sender, address(this), amount);\r\n    }\r\n\r\n    function withdraw(uint256 amount) external {\r\n        require(shares[msg.sender] >= amount, \"Not enough shared\");\r\n        shares[msg.sender] -= amount;\r\n        totalShares -= amount;\r\n        token.transfer(msg.sender, amount);\r\n    }\r\n\r\n    function createProposal(bytes32 _hash) external {\r\n        require(\r\n            shares[msg.sender] >= CREATE_PROPOSAL_MIN_SHARE,\r\n            \"Not enough shared\"\r\n        );\r\n        require(proposals[_hash].hash == bytes32(0), \"Poposal already exists\");\r\n        proposals[_hash] = Proposal(\r\n            msg.sender,\r\n            _hash,\r\n            0,\r\n            0,\r\n            Status.Undecided,\r\n            block.timestamp\r\n        );\r\n    }\r\n\r\n    function vote(bytes32 _hash, Side side) external {\r\n        require(\r\n            shares[msg.sender] >= CREATE_PROPOSAL_MIN_SHARE,\r\n            \"Not enough shared\"\r\n        );\r\n        Proposal storage proposal = proposals[_hash];\r\n        require(proposal.hash != bytes32(0), \"Proposal does not exist\");\r\n        require(proposal.status == Status.Undecided, \"Voting is over\");\r\n        if (proposal.createdAt > block.timestamp - VOTING_PERIOD) {\r\n            _closeVoting(_hash);\r\n        } else {\r\n            require(votes[msg.sender][_hash] == false, \"Already voted\");\r\n            votes[msg.sender][_hash] == true;\r\n            if (side == Side.Yes) {\r\n                proposal.votesYes += shares[msg.sender];\r\n            } else {\r\n                proposal.votesNo += shares[msg.sender];\r\n            }\r\n        }\r\n    }\r\n\r\n    function isVotingOver(bytes32 _hash) external view returns (bool) {\r\n        return proposals[_hash].status != Status.Undecided;\r\n    }\r\n\r\n    function isVotingTimeOver(bytes32 _hash) external view returns (bool) {\r\n        return proposals[_hash].createdAt > block.timestamp - VOTING_PERIOD;\r\n    }\r\n\r\n    function closeVoting(bytes32 _hash) external {\r\n        require(proposals[_hash].hash != bytes32(0), \"Proposal does not exist\");\r\n        require(proposals[_hash].status == Status.Undecided, \"Voting is over\");\r\n        require(\r\n            proposals[_hash].createdAt > block.timestamp - VOTING_PERIOD,\r\n            \"There is still time left to vote...\"\r\n        );\r\n        _closeVoting(_hash);\r\n    }\r\n\r\n    function _closeVoting(bytes32 _hash) internal {\r\n        Proposal storage proposal = proposals[_hash];\r\n        if ((proposal.votesYes * 100) / totalShares > 50) {\r\n            proposal.status = Status.Approved;\r\n        } else {\r\n            proposal.status = Status.Rejected;\r\n        }\r\n    }\r\n}\r\n",
  "sourcePath": "C:/Lgm local/defi-dev/contracts/DAO/DAO.sol",
  "compiler": {
    "name": "solc",
    "version": "0.7.4+commit.3f05b770.Emscripten.clang"
  },
  "schemaVersion": "3.3.4",
  "updatedAt": "2021-03-20T08:23:54.492Z",
  "devdoc": {
    "kind": "dev",
    "methods": {},
    "version": 1
  },
  "userdoc": {
    "kind": "user",
    "methods": {},
    "version": 1
  }
}