{
  "contractName": "LgmCompoundInteraction",
  "abi": [
    {
      "inputs": [
        {
          "internalType": "address",
          "name": "_comptroller",
          "type": "address"
        },
        {
          "internalType": "address",
          "name": "_priceOracle",
          "type": "address"
        }
      ],
      "stateMutability": "nonpayable",
      "type": "constructor"
    },
    {
      "inputs": [],
      "name": "comptroller",
      "outputs": [
        {
          "internalType": "contract ComptrollerInterface",
          "name": "",
          "type": "address"
        }
      ],
      "stateMutability": "view",
      "type": "function"
    },
    {
      "inputs": [],
      "name": "priceOracle",
      "outputs": [
        {
          "internalType": "contract PriceOracleInterface",
          "name": "",
          "type": "address"
        }
      ],
      "stateMutability": "view",
      "type": "function"
    },
    {
      "inputs": [
        {
          "internalType": "address",
          "name": "cTokenAddress",
          "type": "address"
        },
        {
          "internalType": "uint256",
          "name": "underlyingAmount",
          "type": "uint256"
        }
      ],
      "name": "supply",
      "outputs": [],
      "stateMutability": "nonpayable",
      "type": "function"
    },
    {
      "inputs": [
        {
          "internalType": "address",
          "name": "cTokenAddress",
          "type": "address"
        },
        {
          "internalType": "uint256",
          "name": "cTokenAmount",
          "type": "uint256"
        }
      ],
      "name": "redeem",
      "outputs": [],
      "stateMutability": "nonpayable",
      "type": "function"
    }
  ],
  "bytecode": "0x608060405234801561001057600080fd5b506040516106603803806106608339818101604052604081101561003357600080fd5b810190808051906020019092919080519060200190929190505050816000806101000a81548173ffffffffffffffffffffffffffffffffffffffff021916908373ffffffffffffffffffffffffffffffffffffffff16021790555080600160006101000a81548173ffffffffffffffffffffffffffffffffffffffff021916908373ffffffffffffffffffffffffffffffffffffffff1602179055505050610580806100e06000396000f3fe608060405234801561001057600080fd5b506004361061004c5760003560e01c80631e9a6950146100515780632630c12f1461009f5780635fe3b567146100d3578063f2b9fdb814610107575b600080fd5b61009d6004803603604081101561006757600080fd5b81019080803573ffffffffffffffffffffffffffffffffffffffff16906020019092919080359060200190929190505050610155565b005b6100a761024b565b604051808273ffffffffffffffffffffffffffffffffffffffff16815260200191505060405180910390f35b6100db610271565b604051808273ffffffffffffffffffffffffffffffffffffffff16815260200191505060405180910390f35b6101536004803603604081101561011d57600080fd5b81019080803573ffffffffffffffffffffffffffffffffffffffff16906020019092919080359060200190929190505050610295565b005b600082905060008173ffffffffffffffffffffffffffffffffffffffff1663db006a75846040518263ffffffff1660e01b815260040180828152602001915050602060405180830381600087803b1580156101af57600080fd5b505af11580156101c3573d6000803e3d6000fd5b505050506040513d60208110156101d957600080fd5b8101908080519060200190929190505050905060008114610245576040517f08c379a00000000000000000000000000000000000000000000000000000000081526004018080602001828103825260478152602001806105046047913960600191505060405180910390fd5b50505050565b600160009054906101000a900473ffffffffffffffffffffffffffffffffffffffff1681565b60008054906101000a900473ffffffffffffffffffffffffffffffffffffffff1681565b600082905060008173ffffffffffffffffffffffffffffffffffffffff16636f307dc36040518163ffffffff1660e01b815260040160206040518083038186803b1580156102e257600080fd5b505afa1580156102f6573d6000803e3d6000fd5b505050506040513d602081101561030c57600080fd5b810190808051906020019092919050505090508073ffffffffffffffffffffffffffffffffffffffff1663095ea7b385856040518363ffffffff1660e01b8152600401808373ffffffffffffffffffffffffffffffffffffffff16815260200182815260200192505050602060405180830381600087803b15801561039057600080fd5b505af11580156103a4573d6000803e3d6000fd5b505050506040513d60208110156103ba57600080fd5b81019080805190602001909291905050505060008273ffffffffffffffffffffffffffffffffffffffff1663a0712d68856040518263ffffffff1660e01b815260040180828152602001915050602060405180830381600087803b15801561042157600080fd5b505af1158015610435573d6000803e3d6000fd5b505050506040513d602081101561044b57600080fd5b81019080805190602001909291905050509050600081146104b7576040517f08c379a00000000000000000000000000000000000000000000000000000000081526004018080602001828103825260458152602001806104bf6045913960600191505060405180910390fd5b505050505056fe63546f6b656e236d696e742829206661696c65642e2073656520436f6d706f756e64204572726f725265706f727465722e736f6c20666f72206d6f72652064657461696c7363546f6b656e2372656465656d2829206661696c65642e2073656520436f6d706f756e64204572726f725265706f727465722e736f6c20666f72206d6f72652064657461696c73a26469706673582212206697a1fc8cd3782bf3e176776b7ec5396bd051269447a67c0afb595b7b8d847264736f6c63430007040033",
  "immutableReferences": {},
  "source": "// SPDX-License-Identifier: MIT\r\npragma solidity ^0.7.4;\r\n\r\nimport \"@openzeppelin/contracts/token/ERC20/IERC20.sol\";\r\nimport \"./CTokenInterface.sol\";\r\nimport \"./ComptrollerInterface.sol\";\r\nimport \"./PriceOracleInterface.sol\";\r\n\r\ncontract LgmCompoundInteraction {\r\n    ComptrollerInterface public comptroller;\r\n    PriceOracleInterface public priceOracle;\r\n\r\n    constructor(address _comptroller, address _priceOracle) {\r\n        comptroller = ComptrollerInterface(_comptroller);\r\n        priceOracle = PriceOracleInterface(_priceOracle);\r\n    }\r\n\r\n    // Lending\r\n    function supply(address cTokenAddress, uint256 underlyingAmount) external {\r\n        CTokenInterface cToken = CTokenInterface(cTokenAddress);\r\n        address underlyingAddress = cToken.underlying();\r\n        IERC20(underlyingAddress).approve(cTokenAddress, underlyingAmount);\r\n        uint256 result = cToken.mint(underlyingAmount);\r\n        require(\r\n            result == 0,\r\n            \"cToken#mint() failed. see Compound ErrorReporter.sol for more details\"\r\n        );\r\n    }\r\n\r\n    function redeem(address cTokenAddress, uint256 cTokenAmount) external {\r\n        CTokenInterface cToken = CTokenInterface(cTokenAddress);\r\n        uint256 result = cToken.redeem(cTokenAmount);\r\n        require(\r\n            result == 0,\r\n            \"cToken#redeem() failed. see Compound ErrorReporter.sol for more details\"\r\n        );\r\n    }\r\n}\r\n",
  "sourcePath": "C:/Lgm local/defi-dev/contracts/compound/LgmCompoundInteraction.sol",
  "compiler": {
    "name": "solc",
    "version": "0.7.4+commit.3f05b770.Emscripten.clang"
  },
  "schemaVersion": "3.3.4",
  "updatedAt": "2021-03-20T08:23:54.517Z",
  "devdoc": {
    "kind": "dev",
    "methods": {},
    "version": 1
  },
  "userdoc": {
    "kind": "user",
    "methods": {},
    "version": 1
  }
}