{
  "contractName": "LgmNFT",
  "abi": [
    {
      "inputs": [
        {
          "internalType": "string",
          "name": "name",
          "type": "string"
        },
        {
          "internalType": "string",
          "name": "symbol",
          "type": "string"
        }
      ],
      "stateMutability": "nonpayable",
      "type": "constructor"
    },
    {
      "anonymous": false,
      "inputs": [
        {
          "indexed": true,
          "internalType": "address",
          "name": "owner",
          "type": "address"
        },
        {
          "indexed": true,
          "internalType": "address",
          "name": "approved",
          "type": "address"
        },
        {
          "indexed": true,
          "internalType": "uint256",
          "name": "tokenId",
          "type": "uint256"
        }
      ],
      "name": "Approval",
      "type": "event"
    },
    {
      "anonymous": false,
      "inputs": [
        {
          "indexed": true,
          "internalType": "address",
          "name": "owner",
          "type": "address"
        },
        {
          "indexed": true,
          "internalType": "address",
          "name": "operator",
          "type": "address"
        },
        {
          "indexed": false,
          "internalType": "bool",
          "name": "approved",
          "type": "bool"
        }
      ],
      "name": "ApprovalForAll",
      "type": "event"
    },
    {
      "anonymous": false,
      "inputs": [
        {
          "indexed": true,
          "internalType": "address",
          "name": "from",
          "type": "address"
        },
        {
          "indexed": true,
          "internalType": "address",
          "name": "to",
          "type": "address"
        },
        {
          "indexed": true,
          "internalType": "uint256",
          "name": "tokenId",
          "type": "uint256"
        }
      ],
      "name": "Transfer",
      "type": "event"
    },
    {
      "inputs": [],
      "name": "admin",
      "outputs": [
        {
          "internalType": "address",
          "name": "",
          "type": "address"
        }
      ],
      "stateMutability": "view",
      "type": "function"
    },
    {
      "inputs": [
        {
          "internalType": "address",
          "name": "to",
          "type": "address"
        },
        {
          "internalType": "uint256",
          "name": "tokenId",
          "type": "uint256"
        }
      ],
      "name": "approve",
      "outputs": [],
      "stateMutability": "nonpayable",
      "type": "function"
    },
    {
      "inputs": [
        {
          "internalType": "address",
          "name": "owner",
          "type": "address"
        }
      ],
      "name": "balanceOf",
      "outputs": [
        {
          "internalType": "uint256",
          "name": "",
          "type": "uint256"
        }
      ],
      "stateMutability": "view",
      "type": "function"
    },
    {
      "inputs": [],
      "name": "baseURI",
      "outputs": [
        {
          "internalType": "string",
          "name": "",
          "type": "string"
        }
      ],
      "stateMutability": "view",
      "type": "function"
    },
    {
      "inputs": [
        {
          "internalType": "uint256",
          "name": "tokenId",
          "type": "uint256"
        }
      ],
      "name": "getApproved",
      "outputs": [
        {
          "internalType": "address",
          "name": "",
          "type": "address"
        }
      ],
      "stateMutability": "view",
      "type": "function"
    },
    {
      "inputs": [
        {
          "internalType": "address",
          "name": "owner",
          "type": "address"
        },
        {
          "internalType": "address",
          "name": "operator",
          "type": "address"
        }
      ],
      "name": "isApprovedForAll",
      "outputs": [
        {
          "internalType": "bool",
          "name": "",
          "type": "bool"
        }
      ],
      "stateMutability": "view",
      "type": "function"
    },
    {
      "inputs": [],
      "name": "name",
      "outputs": [
        {
          "internalType": "string",
          "name": "",
          "type": "string"
        }
      ],
      "stateMutability": "view",
      "type": "function"
    },
    {
      "inputs": [
        {
          "internalType": "uint256",
          "name": "tokenId",
          "type": "uint256"
        }
      ],
      "name": "ownerOf",
      "outputs": [
        {
          "internalType": "address",
          "name": "",
          "type": "address"
        }
      ],
      "stateMutability": "view",
      "type": "function"
    },
    {
      "inputs": [
        {
          "internalType": "address",
          "name": "from",
          "type": "address"
        },
        {
          "internalType": "address",
          "name": "to",
          "type": "address"
        },
        {
          "internalType": "uint256",
          "name": "tokenId",
          "type": "uint256"
        }
      ],
      "name": "safeTransferFrom",
      "outputs": [],
      "stateMutability": "nonpayable",
      "type": "function"
    },
    {
      "inputs": [
        {
          "internalType": "address",
          "name": "from",
          "type": "address"
        },
        {
          "internalType": "address",
          "name": "to",
          "type": "address"
        },
        {
          "internalType": "uint256",
          "name": "tokenId",
          "type": "uint256"
        },
        {
          "internalType": "bytes",
          "name": "_data",
          "type": "bytes"
        }
      ],
      "name": "safeTransferFrom",
      "outputs": [],
      "stateMutability": "nonpayable",
      "type": "function"
    },
    {
      "inputs": [
        {
          "internalType": "address",
          "name": "operator",
          "type": "address"
        },
        {
          "internalType": "bool",
          "name": "approved",
          "type": "bool"
        }
      ],
      "name": "setApprovalForAll",
      "outputs": [],
      "stateMutability": "nonpayable",
      "type": "function"
    },
    {
      "inputs": [
        {
          "internalType": "bytes4",
          "name": "interfaceId",
          "type": "bytes4"
        }
      ],
      "name": "supportsInterface",
      "outputs": [
        {
          "internalType": "bool",
          "name": "",
          "type": "bool"
        }
      ],
      "stateMutability": "view",
      "type": "function"
    },
    {
      "inputs": [],
      "name": "symbol",
      "outputs": [
        {
          "internalType": "string",
          "name": "",
          "type": "string"
        }
      ],
      "stateMutability": "view",
      "type": "function"
    },
    {
      "inputs": [
        {
          "internalType": "uint256",
          "name": "index",
          "type": "uint256"
        }
      ],
      "name": "tokenByIndex",
      "outputs": [
        {
          "internalType": "uint256",
          "name": "",
          "type": "uint256"
        }
      ],
      "stateMutability": "view",
      "type": "function"
    },
    {
      "inputs": [
        {
          "internalType": "address",
          "name": "owner",
          "type": "address"
        },
        {
          "internalType": "uint256",
          "name": "index",
          "type": "uint256"
        }
      ],
      "name": "tokenOfOwnerByIndex",
      "outputs": [
        {
          "internalType": "uint256",
          "name": "",
          "type": "uint256"
        }
      ],
      "stateMutability": "view",
      "type": "function"
    },
    {
      "inputs": [
        {
          "internalType": "uint256",
          "name": "tokenId",
          "type": "uint256"
        }
      ],
      "name": "tokenURI",
      "outputs": [
        {
          "internalType": "string",
          "name": "",
          "type": "string"
        }
      ],
      "stateMutability": "view",
      "type": "function"
    },
    {
      "inputs": [],
      "name": "totalSupply",
      "outputs": [
        {
          "internalType": "uint256",
          "name": "",
          "type": "uint256"
        }
      ],
      "stateMutability": "view",
      "type": "function"
    },
    {
      "inputs": [
        {
          "internalType": "address",
          "name": "from",
          "type": "address"
        },
        {
          "internalType": "address",
          "name": "to",
          "type": "address"
        },
        {
          "internalType": "uint256",
          "name": "tokenId",
          "type": "uint256"
        }
      ],
      "name": "transferFrom",
      "outputs": [],
      "stateMutability": "nonpayable",
      "type": "function"
    },
    {
      "inputs": [
        {
          "internalType": "address",
          "name": "to",
          "type": "address"
        },
        {
          "internalType": "uint256",
          "name": "tokenId",
          "type": "uint256"
        }
      ],
      "name": "mint",
      "outputs": [],
      "stateMutability": "nonpayable",
      "type": "function"
    }
  ],
  "bytecode": "0x60806040523480156200001157600080fd5b5060405162002fb238038062002fb2833981810160405260408110156200003757600080fd5b81019080805160405193929190846401000000008211156200005857600080fd5b838201915060208201858111156200006f57600080fd5b82518660018202830111640100000000821117156200008d57600080fd5b8083526020830192505050908051906020019080838360005b83811015620000c3578082015181840152602081019050620000a6565b50505050905090810190601f168015620000f15780820380516001836020036101000a031916815260200191505b50604052602001805160405193929190846401000000008211156200011557600080fd5b838201915060208201858111156200012c57600080fd5b82518660018202830111640100000000821117156200014a57600080fd5b8083526020830192505050908051906020019080838360005b838110156200018057808201518184015260208101905062000163565b50505050905090810190601f168015620001ae5780820380516001836020036101000a031916815260200191505b506040525050508181620001cf6301ffc9a760e01b6200029460201b60201c565b8160069080519060200190620001e79291906200039d565b508060079080519060200190620002009291906200039d565b50620002196380ac58cd60e01b6200029460201b60201c565b62000231635b5e139f60e01b6200029460201b60201c565b6200024963780e9d6360e01b6200029460201b60201c565b505033600a60006101000a81548173ffffffffffffffffffffffffffffffffffffffff021916908373ffffffffffffffffffffffffffffffffffffffff160217905550505062000453565b63ffffffff60e01b817bffffffffffffffffffffffffffffffffffffffffffffffffffffffff1916141562000331576040517f08c379a000000000000000000000000000000000000000000000000000000000815260040180806020018281038252601c8152602001807f4552433136353a20696e76616c696420696e746572666163652069640000000081525060200191505060405180910390fd5b6001600080837bffffffffffffffffffffffffffffffffffffffffffffffffffffffff19167bffffffffffffffffffffffffffffffffffffffffffffffffffffffff1916815260200190815260200160002060006101000a81548160ff02191690831515021790555050565b828054600181600116156101000203166002900490600052602060002090601f016020900481019282620003d5576000855562000421565b82601f10620003f057805160ff191683800117855562000421565b8280016001018555821562000421579182015b828111156200042057825182559160200191906001019062000403565b5b50905062000430919062000434565b5090565b5b808211156200044f57600081600090555060010162000435565b5090565b612b4f80620004636000396000f3fe608060405234801561001057600080fd5b50600436106101215760003560e01c80634f6ccce7116100ad578063a22cb46511610071578063a22cb46514610654578063b88d4fde146106a4578063c87b56dd146107a9578063e985e9c514610850578063f851a440146108ca57610121565b80634f6ccce71461045c5780636352211e1461049e5780636c0360eb146104f657806370a082311461057957806395d89b41146105d157610121565b806318160ddd116100f457806318160ddd146102b257806323b872dd146102d05780632f745c591461033e57806340c10f19146103a057806342842e0e146103ee57610121565b806301ffc9a71461012657806306fdde0314610189578063081812fc1461020c578063095ea7b314610264575b600080fd5b6101716004803603602081101561013c57600080fd5b8101908080357bffffffffffffffffffffffffffffffffffffffffffffffffffffffff191690602001909291905050506108fe565b60405180821515815260200191505060405180910390f35b610191610965565b6040518080602001828103825283818151815260200191508051906020019080838360005b838110156101d15780820151818401526020810190506101b6565b50505050905090810190601f1680156101fe5780820380516001836020036101000a031916815260200191505b509250505060405180910390f35b6102386004803603602081101561022257600080fd5b8101908080359060200190929190505050610a07565b604051808273ffffffffffffffffffffffffffffffffffffffff16815260200191505060405180910390f35b6102b06004803603604081101561027a57600080fd5b81019080803573ffffffffffffffffffffffffffffffffffffffff16906020019092919080359060200190929190505050610aa2565b005b6102ba610be6565b6040518082815260200191505060405180910390f35b61033c600480360360608110156102e657600080fd5b81019080803573ffffffffffffffffffffffffffffffffffffffff169060200190929190803573ffffffffffffffffffffffffffffffffffffffff16906020019092919080359060200190929190505050610bf7565b005b61038a6004803603604081101561035457600080fd5b81019080803573ffffffffffffffffffffffffffffffffffffffff16906020019092919080359060200190929190505050610c6d565b6040518082815260200191505060405180910390f35b6103ec600480360360408110156103b657600080fd5b81019080803573ffffffffffffffffffffffffffffffffffffffff16906020019092919080359060200190929190505050610cc8565b005b61045a6004803603606081101561040457600080fd5b81019080803573ffffffffffffffffffffffffffffffffffffffff169060200190929190803573ffffffffffffffffffffffffffffffffffffffff16906020019092919080359060200190929190505050610d99565b005b6104886004803603602081101561047257600080fd5b8101908080359060200190929190505050610db9565b6040518082815260200191505060405180910390f35b6104ca600480360360208110156104b457600080fd5b8101908080359060200190929190505050610ddc565b604051808273ffffffffffffffffffffffffffffffffffffffff16815260200191505060405180910390f35b6104fe610e13565b6040518080602001828103825283818151815260200191508051906020019080838360005b8381101561053e578082015181840152602081019050610523565b50505050905090810190601f16801561056b5780820380516001836020036101000a031916815260200191505b509250505060405180910390f35b6105bb6004803603602081101561058f57600080fd5b81019080803573ffffffffffffffffffffffffffffffffffffffff169060200190929190505050610eb5565b6040518082815260200191505060405180910390f35b6105d9610f8a565b6040518080602001828103825283818151815260200191508051906020019080838360005b838110156106195780820151818401526020810190506105fe565b50505050905090810190601f1680156106465780820380516001836020036101000a031916815260200191505b509250505060405180910390f35b6106a26004803603604081101561066a57600080fd5b81019080803573ffffffffffffffffffffffffffffffffffffffff16906020019092919080351515906020019092919050505061102c565b005b6107a7600480360360808110156106ba57600080fd5b81019080803573ffffffffffffffffffffffffffffffffffffffff169060200190929190803573ffffffffffffffffffffffffffffffffffffffff169060200190929190803590602001909291908035906020019064010000000081111561072157600080fd5b82018360208201111561073357600080fd5b8035906020019184600183028401116401000000008311171561075557600080fd5b91908080601f016020809104026020016040519081016040528093929190818152602001838380828437600081840152601f19601f8201169050808301925050505050505091929192905050506111e2565b005b6107d5600480360360208110156107bf57600080fd5b810190808035906020019092919050505061125a565b6040518080602001828103825283818151815260200191508051906020019080838360005b838110156108155780820151818401526020810190506107fa565b50505050905090810190601f1680156108425780820380516001836020036101000a031916815260200191505b509250505060405180910390f35b6108b26004803603604081101561086657600080fd5b81019080803573ffffffffffffffffffffffffffffffffffffffff169060200190929190803573ffffffffffffffffffffffffffffffffffffffff169060200190929190505050611543565b60405180821515815260200191505060405180910390f35b6108d26115d7565b604051808273ffffffffffffffffffffffffffffffffffffffff16815260200191505060405180910390f35b6000806000837bffffffffffffffffffffffffffffffffffffffffffffffffffffffff19167bffffffffffffffffffffffffffffffffffffffffffffffffffffffff1916815260200190815260200160002060009054906101000a900460ff169050919050565b606060068054600181600116156101000203166002900480601f0160208091040260200160405190810160405280929190818152602001828054600181600116156101000203166002900480156109fd5780601f106109d2576101008083540402835291602001916109fd565b820191906000526020600020905b8154815290600101906020018083116109e057829003601f168201915b5050505050905090565b6000610a12826115fd565b610a67576040517f08c379a000000000000000000000000000000000000000000000000000000000815260040180806020018281038252602c815260200180612a44602c913960400191505060405180910390fd5b6004600083815260200190815260200160002060009054906101000a900473ffffffffffffffffffffffffffffffffffffffff169050919050565b6000610aad82610ddc565b90508073ffffffffffffffffffffffffffffffffffffffff168373ffffffffffffffffffffffffffffffffffffffff161415610b34576040517f08c379a0000000000000000000000000000000000000000000000000000000008152600401808060200182810382526021815260200180612ac86021913960400191505060405180910390fd5b8073ffffffffffffffffffffffffffffffffffffffff16610b5361161a565b73ffffffffffffffffffffffffffffffffffffffff161480610b825750610b8181610b7c61161a565b611543565b5b610bd7576040517f08c379a00000000000000000000000000000000000000000000000000000000081526004018080602001828103825260388152602001806129976038913960400191505060405180910390fd5b610be18383611622565b505050565b6000610bf260026116db565b905090565b610c08610c0261161a565b826116f0565b610c5d576040517f08c379a0000000000000000000000000000000000000000000000000000000008152600401808060200182810382526031815260200180612ae96031913960400191505060405180910390fd5b610c688383836117e4565b505050565b6000610cc082600160008673ffffffffffffffffffffffffffffffffffffffff1673ffffffffffffffffffffffffffffffffffffffff168152602001908152602001600020611a2790919063ffffffff16565b905092915050565b600a60009054906101000a900473ffffffffffffffffffffffffffffffffffffffff1673ffffffffffffffffffffffffffffffffffffffff163373ffffffffffffffffffffffffffffffffffffffff1614610d8b576040517f08c379a000000000000000000000000000000000000000000000000000000000815260040180806020018281038252600a8152602001807f4f6e6c792061646d696e0000000000000000000000000000000000000000000081525060200191505060405180910390fd5b610d958282611a41565b5050565b610db4838383604051806020016040528060008152506111e2565b505050565b600080610dd0836002611a5f90919063ffffffff16565b50905080915050919050565b6000610e0c826040518060600160405280602981526020016129f9602991396002611a8b9092919063ffffffff16565b9050919050565b606060098054600181600116156101000203166002900480601f016020809104026020016040519081016040528092919081815260200182805460018160011615610100020316600290048015610eab5780601f10610e8057610100808354040283529160200191610eab565b820191906000526020600020905b815481529060010190602001808311610e8e57829003601f168201915b5050505050905090565b60008073ffffffffffffffffffffffffffffffffffffffff168273ffffffffffffffffffffffffffffffffffffffff161415610f3c576040517f08c379a000000000000000000000000000000000000000000000000000000000815260040180806020018281038252602a8152602001806129cf602a913960400191505060405180910390fd5b610f83600160008473ffffffffffffffffffffffffffffffffffffffff1673ffffffffffffffffffffffffffffffffffffffff168152602001908152602001600020611aaa565b9050919050565b606060078054600181600116156101000203166002900480601f0160208091040260200160405190810160405280929190818152602001828054600181600116156101000203166002900480156110225780601f10610ff757610100808354040283529160200191611022565b820191906000526020600020905b81548152906001019060200180831161100557829003601f168201915b5050505050905090565b61103461161a565b73ffffffffffffffffffffffffffffffffffffffff168273ffffffffffffffffffffffffffffffffffffffff1614156110d5576040517f08c379a00000000000000000000000000000000000000000000000000000000081526004018080602001828103825260198152602001807f4552433732313a20617070726f766520746f2063616c6c65720000000000000081525060200191505060405180910390fd5b80600560006110e261161a565b73ffffffffffffffffffffffffffffffffffffffff1673ffffffffffffffffffffffffffffffffffffffff16815260200190815260200160002060008473ffffffffffffffffffffffffffffffffffffffff1673ffffffffffffffffffffffffffffffffffffffff16815260200190815260200160002060006101000a81548160ff0219169083151502179055508173ffffffffffffffffffffffffffffffffffffffff1661118f61161a565b73ffffffffffffffffffffffffffffffffffffffff167f17307eab39ab6107e8899845ad3d59bd9653f200f220920489ca2b5937696c318360405180821515815260200191505060405180910390a35050565b6111f36111ed61161a565b836116f0565b611248576040517f08c379a0000000000000000000000000000000000000000000000000000000008152600401808060200182810382526031815260200180612ae96031913960400191505060405180910390fd5b61125484848484611abf565b50505050565b6060611265826115fd565b6112ba576040517f08c379a000000000000000000000000000000000000000000000000000000000815260040180806020018281038252602f815260200180612a99602f913960400191505060405180910390fd5b6060600860008481526020019081526020016000208054600181600116156101000203166002900480601f0160208091040260200160405190810160405280929190818152602001828054600181600116156101000203166002900480156113635780601f1061133857610100808354040283529160200191611363565b820191906000526020600020905b81548152906001019060200180831161134657829003601f168201915b50505050509050600060098054600181600116156101000203166002900490501415611392578091505061153e565b60008151111561146b5760098160405160200180838054600181600116156101000203166002900480156113fd5780601f106113db5761010080835404028352918201916113fd565b820191906000526020600020905b8154815290600101906020018083116113e9575b505082805190602001908083835b6020831061142e578051825260208201915060208101905060208303925061140b565b6001836020036101000a0380198251168184511680821785525050505050509050019250505060405160208183030381529060405291505061153e565b600961147684611b31565b60405160200180838054600181600116156101000203166002900480156114d45780601f106114b25761010080835404028352918201916114d4565b820191906000526020600020905b8154815290600101906020018083116114c0575b505082805190602001908083835b6020831061150557805182526020820191506020810190506020830392506114e2565b6001836020036101000a038019825116818451168082178552505050505050905001925050506040516020818303038152906040529150505b919050565b6000600560008473ffffffffffffffffffffffffffffffffffffffff1673ffffffffffffffffffffffffffffffffffffffff16815260200190815260200160002060008373ffffffffffffffffffffffffffffffffffffffff1673ffffffffffffffffffffffffffffffffffffffff16815260200190815260200160002060009054906101000a900460ff16905092915050565b600a60009054906101000a900473ffffffffffffffffffffffffffffffffffffffff1681565b6000611613826002611c7890919063ffffffff16565b9050919050565b600033905090565b816004600083815260200190815260200160002060006101000a81548173ffffffffffffffffffffffffffffffffffffffff021916908373ffffffffffffffffffffffffffffffffffffffff160217905550808273ffffffffffffffffffffffffffffffffffffffff1661169583610ddc565b73ffffffffffffffffffffffffffffffffffffffff167f8c5be1e5ebec7d5bd14f71427d1e84f3dd0314c0f7b2291e5b200ac8c7c3b92560405160405180910390a45050565b60006116e982600001611c92565b9050919050565b60006116fb826115fd565b611750576040517f08c379a000000000000000000000000000000000000000000000000000000000815260040180806020018281038252602c81526020018061296b602c913960400191505060405180910390fd5b600061175b83610ddc565b90508073ffffffffffffffffffffffffffffffffffffffff168473ffffffffffffffffffffffffffffffffffffffff1614806117ca57508373ffffffffffffffffffffffffffffffffffffffff166117b284610a07565b73ffffffffffffffffffffffffffffffffffffffff16145b806117db57506117da8185611543565b5b91505092915050565b8273ffffffffffffffffffffffffffffffffffffffff1661180482610ddc565b73ffffffffffffffffffffffffffffffffffffffff1614611870576040517f08c379a0000000000000000000000000000000000000000000000000000000008152600401808060200182810382526029815260200180612a706029913960400191505060405180910390fd5b600073ffffffffffffffffffffffffffffffffffffffff168273ffffffffffffffffffffffffffffffffffffffff1614156118f6576040517f08c379a00000000000000000000000000000000000000000000000000000000081526004018080602001828103825260248152602001806129216024913960400191505060405180910390fd5b611901838383611ca3565b61190c600082611622565b61195d81600160008673ffffffffffffffffffffffffffffffffffffffff1673ffffffffffffffffffffffffffffffffffffffff168152602001908152602001600020611ca890919063ffffffff16565b506119af81600160008573ffffffffffffffffffffffffffffffffffffffff1673ffffffffffffffffffffffffffffffffffffffff168152602001908152602001600020611cc290919063ffffffff16565b506119c681836002611cdc9092919063ffffffff16565b50808273ffffffffffffffffffffffffffffffffffffffff168473ffffffffffffffffffffffffffffffffffffffff167fddf252ad1be2c89b69c2b068fc378daa952ba7f163c4a11628f55a4df523b3ef60405160405180910390a4505050565b6000611a368360000183611d11565b60001c905092915050565b611a5b828260405180602001604052806000815250611d94565b5050565b600080600080611a728660000186611e05565b915091508160001c8160001c9350935050509250929050565b6000611a9e846000018460001b84611e9e565b60001c90509392505050565b6000611ab882600001611f94565b9050919050565b611aca8484846117e4565b611ad684848484611fa5565b611b2b576040517f08c379a00000000000000000000000000000000000000000000000000000000081526004018080602001828103825260328152602001806128ef6032913960400191505060405180910390fd5b50505050565b60606000821415611b79576040518060400160405280600181526020017f30000000000000000000000000000000000000000000000000000000000000008152509050611c73565b600082905060005b60008214611ba3578080600101915050600a8281611b9b57fe5b049150611b81565b60608167ffffffffffffffff81118015611bbc57600080fd5b506040519080825280601f01601f191660200182016040528015611bef5781602001600182028036833780820191505090505b50905060006001830390508593505b60008414611c6b57600a8481611c1057fe5b0660300160f81b82828060019003935081518110611c2a57fe5b60200101907effffffffffffffffffffffffffffffffffffffffffffffffffffffffffffff1916908160001a905350600a8481611c6357fe5b049350611bfe565b819450505050505b919050565b6000611c8a836000018360001b6121be565b905092915050565b600081600001805490509050919050565b505050565b6000611cba836000018360001b6121e1565b905092915050565b6000611cd4836000018360001b6122c9565b905092915050565b6000611d08846000018460001b8473ffffffffffffffffffffffffffffffffffffffff1660001b612339565b90509392505050565b600081836000018054905011611d72576040517f08c379a00000000000000000000000000000000000000000000000000000000081526004018080602001828103825260228152602001806128cd6022913960400191505060405180910390fd5b826000018281548110611d8157fe5b9060005260206000200154905092915050565b611d9e8383612415565b611dab6000848484611fa5565b611e00576040517f08c379a00000000000000000000000000000000000000000000000000000000081526004018080602001828103825260328152602001806128ef6032913960400191505060405180910390fd5b505050565b60008082846000018054905011611e67576040517f08c379a0000000000000000000000000000000000000000000000000000000008152600401808060200182810382526022815260200180612a226022913960400191505060405180910390fd5b6000846000018481548110611e7857fe5b906000526020600020906002020190508060000154816001015492509250509250929050565b60008084600101600085815260200190815260200160002054905060008114158390611f65576040517f08c379a00000000000000000000000000000000000000000000000000000000081526004018080602001828103825283818151815260200191508051906020019080838360005b83811015611f2a578082015181840152602081019050611f0f565b50505050905090810190601f168015611f575780820380516001836020036101000a031916815260200191505b509250505060405180910390fd5b50846000016001820381548110611f7857fe5b9060005260206000209060020201600101549150509392505050565b600081600001805490509050919050565b6000611fc68473ffffffffffffffffffffffffffffffffffffffff16612609565b611fd357600190506121b6565b606061213d63150b7a0260e01b611fe861161a565b888787604051602401808573ffffffffffffffffffffffffffffffffffffffff1681526020018473ffffffffffffffffffffffffffffffffffffffff16815260200183815260200180602001828103825283818151815260200191508051906020019080838360005b8381101561206c578082015181840152602081019050612051565b50505050905090810190601f1680156120995780820380516001836020036101000a031916815260200191505b5095505050505050604051602081830303815290604052907bffffffffffffffffffffffffffffffffffffffffffffffffffffffff19166020820180517bffffffffffffffffffffffffffffffffffffffffffffffffffffffff83818316178352505050506040518060600160405280603281526020016128ef603291398773ffffffffffffffffffffffffffffffffffffffff1661261c9092919063ffffffff16565b9050600081806020019051602081101561215657600080fd5b8101908080519060200190929190505050905063150b7a0260e01b7bffffffffffffffffffffffffffffffffffffffffffffffffffffffff1916817bffffffffffffffffffffffffffffffffffffffffffffffffffffffff191614925050505b949350505050565b600080836001016000848152602001908152602001600020541415905092915050565b600080836001016000848152602001908152602001600020549050600081146122bd576000600182039050600060018660000180549050039050600086600001828154811061222c57fe5b906000526020600020015490508087600001848154811061224957fe5b906000526020600020018190555060018301876001016000838152602001908152602001600020819055508660000180548061228157fe5b600190038181906000526020600020016000905590558660010160008781526020019081526020016000206000905560019450505050506122c3565b60009150505b92915050565b60006122d58383612634565b61232e578260000182908060018154018082558091505060019003906000526020600020016000909190919091505582600001805490508360010160008481526020019081526020016000208190555060019050612333565b600090505b92915050565b60008084600101600085815260200190815260200160002054905060008114156123e05784600001604051806040016040528086815260200185815250908060018154018082558091505060019003906000526020600020906002020160009091909190915060008201518160000155602082015181600101555050846000018054905085600101600086815260200190815260200160002081905550600191505061240e565b828560000160018303815481106123f357fe5b90600052602060002090600202016001018190555060009150505b9392505050565b600073ffffffffffffffffffffffffffffffffffffffff168273ffffffffffffffffffffffffffffffffffffffff1614156124b8576040517f08c379a00000000000000000000000000000000000000000000000000000000081526004018080602001828103825260208152602001807f4552433732313a206d696e7420746f20746865207a65726f206164647265737381525060200191505060405180910390fd5b6124c1816115fd565b15612534576040517f08c379a000000000000000000000000000000000000000000000000000000000815260040180806020018281038252601c8152602001807f4552433732313a20746f6b656e20616c7265616479206d696e7465640000000081525060200191505060405180910390fd5b61254060008383611ca3565b61259181600160008573ffffffffffffffffffffffffffffffffffffffff1673ffffffffffffffffffffffffffffffffffffffff168152602001908152602001600020611cc290919063ffffffff16565b506125a881836002611cdc9092919063ffffffff16565b50808273ffffffffffffffffffffffffffffffffffffffff16600073ffffffffffffffffffffffffffffffffffffffff167fddf252ad1be2c89b69c2b068fc378daa952ba7f163c4a11628f55a4df523b3ef60405160405180910390a45050565b600080823b905060008111915050919050565b606061262b8484600085612657565b90509392505050565b600080836001016000848152602001908152602001600020541415905092915050565b6060824710156126b2576040517f08c379a00000000000000000000000000000000000000000000000000000000081526004018080602001828103825260268152602001806129456026913960400191505060405180910390fd5b6126bb85612609565b61272d576040517f08c379a000000000000000000000000000000000000000000000000000000000815260040180806020018281038252601d8152602001807f416464726573733a2063616c6c20746f206e6f6e2d636f6e747261637400000081525060200191505060405180910390fd5b600060608673ffffffffffffffffffffffffffffffffffffffff1685876040518082805190602001908083835b6020831061277d578051825260208201915060208101905060208303925061275a565b6001836020036101000a03801982511681845116808217855250505050505090500191505060006040518083038185875af1925050503d80600081146127df576040519150601f19603f3d011682016040523d82523d6000602084013e6127e4565b606091505b50915091506127f4828286612800565b92505050949350505050565b60608315612810578290506128c5565b6000835111156128235782518084602001fd5b816040517f08c379a00000000000000000000000000000000000000000000000000000000081526004018080602001828103825283818151815260200191508051906020019080838360005b8381101561288a57808201518184015260208101905061286f565b50505050905090810190601f1680156128b75780820380516001836020036101000a031916815260200191505b509250505060405180910390fd5b939250505056fe456e756d657261626c655365743a20696e646578206f7574206f6620626f756e64734552433732313a207472616e7366657220746f206e6f6e20455243373231526563656976657220696d706c656d656e7465724552433732313a207472616e7366657220746f20746865207a65726f2061646472657373416464726573733a20696e73756666696369656e742062616c616e636520666f722063616c6c4552433732313a206f70657261746f7220717565727920666f72206e6f6e6578697374656e7420746f6b656e4552433732313a20617070726f76652063616c6c6572206973206e6f74206f776e6572206e6f7220617070726f76656420666f7220616c6c4552433732313a2062616c616e636520717565727920666f7220746865207a65726f20616464726573734552433732313a206f776e657220717565727920666f72206e6f6e6578697374656e7420746f6b656e456e756d657261626c654d61703a20696e646578206f7574206f6620626f756e64734552433732313a20617070726f76656420717565727920666f72206e6f6e6578697374656e7420746f6b656e4552433732313a207472616e73666572206f6620746f6b656e2074686174206973206e6f74206f776e4552433732314d657461646174613a2055524920717565727920666f72206e6f6e6578697374656e7420746f6b656e4552433732313a20617070726f76616c20746f2063757272656e74206f776e65724552433732313a207472616e736665722063616c6c6572206973206e6f74206f776e6572206e6f7220617070726f766564a264697066735822122015f8823c7355a5dbe313a7198ec72f33c0bfba3b65d86245e5f62fa44041bf9a64736f6c63430007040033",
  "immutableReferences": {},
  "source": "// SPDX-License-Identifier: MIT\r\npragma solidity ^0.7.4;\r\n\r\nimport \"@openzeppelin/contracts/token/ERC721/ERC721.sol\";\r\n\r\ncontract LgmNFT is ERC721 {\r\n    address public admin;\r\n\r\n    constructor(string memory name, string memory symbol) ERC721(name, symbol) {\r\n        admin = msg.sender;\r\n    }\r\n\r\n    function mint(address to, uint256 tokenId) external {\r\n        require(msg.sender == admin, \"Only admin\");\r\n        _safeMint(to, tokenId);\r\n    }\r\n}\r\n",
  "sourcePath": "C:/Lgm local/defi-dev/contracts/LgmNFT.sol",
  "compiler": {
    "name": "solc",
    "version": "0.7.4+commit.3f05b770.Emscripten.clang"
  },
  "schemaVersion": "3.3.4",
  "updatedAt": "2021-03-20T08:23:54.501Z",
  "devdoc": {
    "kind": "dev",
    "methods": {
      "approve(address,uint256)": {
        "details": "See {IERC721-approve}."
      },
      "balanceOf(address)": {
        "details": "See {IERC721-balanceOf}."
      },
      "baseURI()": {
        "details": "Returns the base URI set via {_setBaseURI}. This will be automatically added as a prefix in {tokenURI} to each token's URI, or to the token ID if no specific URI is set for that token ID."
      },
      "getApproved(uint256)": {
        "details": "See {IERC721-getApproved}."
      },
      "isApprovedForAll(address,address)": {
        "details": "See {IERC721-isApprovedForAll}."
      },
      "name()": {
        "details": "See {IERC721Metadata-name}."
      },
      "ownerOf(uint256)": {
        "details": "See {IERC721-ownerOf}."
      },
      "safeTransferFrom(address,address,uint256)": {
        "details": "See {IERC721-safeTransferFrom}."
      },
      "safeTransferFrom(address,address,uint256,bytes)": {
        "details": "See {IERC721-safeTransferFrom}."
      },
      "setApprovalForAll(address,bool)": {
        "details": "See {IERC721-setApprovalForAll}."
      },
      "supportsInterface(bytes4)": {
        "details": "See {IERC165-supportsInterface}. Time complexity O(1), guaranteed to always use less than 30 000 gas."
      },
      "symbol()": {
        "details": "See {IERC721Metadata-symbol}."
      },
      "tokenByIndex(uint256)": {
        "details": "See {IERC721Enumerable-tokenByIndex}."
      },
      "tokenOfOwnerByIndex(address,uint256)": {
        "details": "See {IERC721Enumerable-tokenOfOwnerByIndex}."
      },
      "tokenURI(uint256)": {
        "details": "See {IERC721Metadata-tokenURI}."
      },
      "totalSupply()": {
        "details": "See {IERC721Enumerable-totalSupply}."
      },
      "transferFrom(address,address,uint256)": {
        "details": "See {IERC721-transferFrom}."
      }
    },
    "version": 1
  },
  "userdoc": {
    "kind": "user",
    "methods": {},
    "version": 1
  }
}