{
  "contractName": "Oracle",
  "abi": [
    {
      "inputs": [
        {
          "internalType": "address",
          "name": "_admin",
          "type": "address"
        }
      ],
      "stateMutability": "nonpayable",
      "type": "constructor"
    },
    {
      "inputs": [],
      "name": "admin",
      "outputs": [
        {
          "internalType": "address",
          "name": "",
          "type": "address"
        }
      ],
      "stateMutability": "view",
      "type": "function"
    },
    {
      "inputs": [
        {
          "internalType": "bytes32",
          "name": "",
          "type": "bytes32"
        }
      ],
      "name": "data",
      "outputs": [
        {
          "internalType": "uint256",
          "name": "date",
          "type": "uint256"
        },
        {
          "internalType": "uint256",
          "name": "payload",
          "type": "uint256"
        }
      ],
      "stateMutability": "view",
      "type": "function"
    },
    {
      "inputs": [
        {
          "internalType": "address",
          "name": "",
          "type": "address"
        }
      ],
      "name": "reporters",
      "outputs": [
        {
          "internalType": "bool",
          "name": "",
          "type": "bool"
        }
      ],
      "stateMutability": "view",
      "type": "function"
    },
    {
      "inputs": [
        {
          "internalType": "address",
          "name": "reporter",
          "type": "address"
        },
        {
          "internalType": "bool",
          "name": "isReporter",
          "type": "bool"
        }
      ],
      "name": "updateReporter",
      "outputs": [],
      "stateMutability": "nonpayable",
      "type": "function"
    },
    {
      "inputs": [
        {
          "internalType": "bytes32",
          "name": "key",
          "type": "bytes32"
        },
        {
          "internalType": "uint256",
          "name": "payload",
          "type": "uint256"
        }
      ],
      "name": "updateDate",
      "outputs": [],
      "stateMutability": "nonpayable",
      "type": "function"
    },
    {
      "inputs": [
        {
          "internalType": "bytes32",
          "name": "key",
          "type": "bytes32"
        }
      ],
      "name": "getData",
      "outputs": [
        {
          "internalType": "bool",
          "name": "result",
          "type": "bool"
        },
        {
          "internalType": "uint256",
          "name": "date",
          "type": "uint256"
        },
        {
          "internalType": "uint256",
          "name": "payload",
          "type": "uint256"
        }
      ],
      "stateMutability": "view",
      "type": "function"
    }
  ],
  "bytecode": "0x608060405234801561001057600080fd5b506040516105e03803806105e08339818101604052602081101561003357600080fd5b8101908080519060200190929190505050806000806101000a81548173ffffffffffffffffffffffffffffffffffffffff021916908373ffffffffffffffffffffffffffffffffffffffff1602179055505061054c806100946000396000f3fe608060405234801561001057600080fd5b50600436106100625760003560e01c80630147fb0c146100675780630daf74e2146100b05780631ec6e24f146100e85780632cc1cd9e1461013857806354f6127f14610192578063f851a440146101e4575b600080fd5b6100936004803603602081101561007d57600080fd5b8101908080359060200190929190505050610218565b604051808381526020018281526020019250505060405180910390f35b6100e6600480360360408110156100c657600080fd5b81019080803590602001909291908035906020019092919050505061023c565b005b610136600480360360408110156100fe57600080fd5b81019080803573ffffffffffffffffffffffffffffffffffffffff169060200190929190803515159060200190929190505050610345565b005b61017a6004803603602081101561014e57600080fd5b81019080803573ffffffffffffffffffffffffffffffffffffffff169060200190929190505050610461565b60405180821515815260200191505060405180910390f35b6101be600480360360208110156101a857600080fd5b8101908080359060200190929190505050610481565b604051808415158152602001838152602001828152602001935050505060405180910390f35b6101ec6104f2565b604051808273ffffffffffffffffffffffffffffffffffffffff16815260200191505060405180910390f35b60026020528060005260406000206000915090508060000154908060010154905082565b60011515600160003373ffffffffffffffffffffffffffffffffffffffff1673ffffffffffffffffffffffffffffffffffffffff16815260200190815260200160002060009054906101000a900460ff16151514610302576040517f08c379a000000000000000000000000000000000000000000000000000000000815260040180806020018281038252600e8152602001807f4f6e6c79207265706f727465727300000000000000000000000000000000000081525060200191505060405180910390fd5b6040518060400160405280428152602001828152506002600084815260200190815260200160002060008201518160000155602082015181600101559050505050565b60008054906101000a900473ffffffffffffffffffffffffffffffffffffffff1673ffffffffffffffffffffffffffffffffffffffff163373ffffffffffffffffffffffffffffffffffffffff1614610406576040517f08c379a000000000000000000000000000000000000000000000000000000000815260040180806020018281038252600a8152602001807f4f6e6c792061646d696e0000000000000000000000000000000000000000000081525060200191505060405180910390fd5b80600160008473ffffffffffffffffffffffffffffffffffffffff1673ffffffffffffffffffffffffffffffffffffffff16815260200190815260200160002060006101000a81548160ff0219169083151502179055505050565b60016020528060005260406000206000915054906101000a900460ff1681565b600080600080600260008681526020019081526020016000206000015414156104b45760008060009250925092506104eb565b6001600260008681526020019081526020016000206000015460026000878152602001908152602001600020600101549250925092505b9193909250565b60008054906101000a900473ffffffffffffffffffffffffffffffffffffffff168156fea264697066735822122023dc510b678e35200cc7b34bed458d586f99125f49d95a8aeb91ce809356d67364736f6c63430007040033",
  "immutableReferences": {},
  "source": "// SPDX-License-Identifier: MIT\r\npragma solidity ^0.7.4;\r\n\r\ncontract Oracle {\r\n    struct Data {\r\n        uint256 date;\r\n        uint256 payload;\r\n    }\r\n    address public admin;\r\n    mapping(address => bool) public reporters;\r\n    mapping(bytes32 => Data) public data;\r\n\r\n    constructor(address _admin) {\r\n        admin = _admin;\r\n    }\r\n\r\n    function updateReporter(address reporter, bool isReporter) external {\r\n        require(msg.sender == admin, \"Only admin\");\r\n        reporters[reporter] = isReporter;\r\n    }\r\n\r\n    function updateDate(bytes32 key, uint256 payload) external {\r\n        require(reporters[msg.sender] == true, \"Only reporters\");\r\n        data[key] = Data(block.timestamp, payload);\r\n    }\r\n\r\n    function getData(bytes32 key)\r\n        external\r\n        view\r\n        returns (\r\n            bool result,\r\n            uint256 date,\r\n            uint256 payload\r\n        )\r\n    {\r\n        if (data[key].date == 0) {\r\n            return (false, 0, 0);\r\n        }\r\n        return (true, data[key].date, data[key].payload);\r\n    }\r\n}\r\n",
  "sourcePath": "C:/Lgm local/defi-dev/erc20/contracts/Oracle.sol",
  "compiler": {
    "name": "solc",
    "version": "0.7.4+commit.3f05b770.Emscripten.clang"
  },
  "schemaVersion": "3.3.3",
  "updatedAt": "2021-02-14T16:58:54.728Z",
  "devdoc": {
    "kind": "dev",
    "methods": {},
    "version": 1
  },
  "userdoc": {
    "kind": "user",
    "methods": {},
    "version": 1
  }
}