{
  "contractName": "OracleConsumer",
  "abi": [
    {
      "inputs": [
        {
          "internalType": "address",
          "name": "_oracle",
          "type": "address"
        }
      ],
      "stateMutability": "nonpayable",
      "type": "constructor"
    },
    {
      "inputs": [],
      "name": "oracle",
      "outputs": [
        {
          "internalType": "contract IOracle",
          "name": "",
          "type": "address"
        }
      ],
      "stateMutability": "view",
      "type": "function"
    },
    {
      "inputs": [],
      "name": "oracleData",
      "outputs": [
        {
          "internalType": "uint256",
          "name": "",
          "type": "uint256"
        }
      ],
      "stateMutability": "view",
      "type": "function"
    },
    {
      "inputs": [],
      "name": "fetchData",
      "outputs": [],
      "stateMutability": "nonpayable",
      "type": "function"
    }
  ],
  "bytecode": "0x608060405234801561001057600080fd5b506040516103ad3803806103ad8339818101604052602081101561003357600080fd5b8101908080519060200190929190505050806000806101000a81548173ffffffffffffffffffffffffffffffffffffffff021916908373ffffffffffffffffffffffffffffffffffffffff16021790555050610319806100946000396000f3fe608060405234801561001057600080fd5b50600436106100415760003560e01c806367845e161461004657806374645ff3146100505780637dc0d1d01461006e575b600080fd5b61004e6100a2565b005b6100586102b9565b6040518082815260200191505060405180910390f35b6100766102bf565b604051808273ffffffffffffffffffffffffffffffffffffffff16815260200191505060405180910390f35b600060405160200180807f4254432f55534400000000000000000000000000000000000000000000000000815250600701905060405160208183030381529060405280519060200120905060008060008060009054906101000a900473ffffffffffffffffffffffffffffffffffffffff1673ffffffffffffffffffffffffffffffffffffffff166354f6127f856040518263ffffffff1660e01b81526004018082815260200191505060606040518083038186803b15801561016457600080fd5b505afa158015610178573d6000803e3d6000fd5b505050506040513d606081101561018e57600080fd5b810190808051906020019092919080519060200190929190805190602001909291905050509250925092506001151583151514610233576040517f08c379a00000000000000000000000000000000000000000000000000000000081526004018080602001828103825260138152602001807f6e6f20646174612066726f6d206f7261636c650000000000000000000000000081525060200191505060405180910390fd5b607842038210156102ac576040517f08c379a000000000000000000000000000000000000000000000000000000000815260040180806020018281038252600f8152602001807f6461746120697320746f6f206f6c64000000000000000000000000000000000081525060200191505060405180910390fd5b8060018190555050505050565b60015481565b60008054906101000a900473ffffffffffffffffffffffffffffffffffffffff168156fea2646970667358221220b36c79f1353c31d4531fbf55413ce4493c868f222a1e22aff4ff6448641a919a64736f6c63430007040033",
  "immutableReferences": {},
  "source": "// SPDX-License-Identifier: MIT\r\npragma solidity ^0.7.4;\r\n\r\nimport \"./IOracle.sol\";\r\n\r\ncontract OracleConsumer {\r\n    IOracle public oracle;\r\n    uint256 public oracleData;\r\n\r\n    constructor(address _oracle) {\r\n        oracle = IOracle(_oracle);\r\n    }\r\n\r\n    function fetchData() external {\r\n        bytes32 key = keccak256(abi.encodePacked(\"BTC/USD\"));\r\n        (bool result, uint256 timestamp, uint256 data) = oracle.getData(key);\r\n        require(result == true, \"no data from oracle\");\r\n        require(timestamp >= block.timestamp - 2 minutes, \"data is too old\");\r\n        oracleData = data;\r\n    }\r\n}\r\n",
  "sourcePath": "C:/Lgm local/defi-dev/erc20/contracts/OracleConsumer.sol",
  "compiler": {
    "name": "solc",
    "version": "0.7.4+commit.3f05b770.Emscripten.clang"
  },
  "schemaVersion": "3.3.3",
  "updatedAt": "2021-02-14T16:58:54.732Z",
  "devdoc": {
    "kind": "dev",
    "methods": {},
    "version": 1
  },
  "userdoc": {
    "kind": "user",
    "methods": {},
    "version": 1
  }
}